:020000040800F2
:10000000F80B0020390400083D0200083F020008F8
:1000100043020008470200084B02000800000000ED
:100020000000000000000000000000004F02000877
:1000300051020008000000005302000855020008A9
:100040005304000853040008530400085304000834
:100050005304000853040008530400085304000824
:100060005304000853040008530400085304000814
:100070005304000853040008530400085304000804
:1000800053040008530400085304000853040008F4
:1000900053040008530400085304000853040008E4
:1000A00053040008530400085304000853040008D4
:1000B00053040008530400085304000853040008C4
:1000C00053040008530400085304000853040008B4
:1000D000530400088918000853040008530400085A
:1000E0005304000853040008530400085304000894
:1000F0005304000853040008530400085304000884
:100100005304000853040008530400085304000873
:100110005304000853040008530400085304000863
:100120005304000853040008530400085304000853
:1001300000F002F800F03AF80AA090E8000C8244BF
:100140008344AAF10107DA4501D100F02FF8AFF29C
:10015000090EBAE80F0013F0010F18BFFB1A43F0A5
:10016000010318471024000030240000103A24BF77
:1001700078C878C1FAD8520724BF30C830C144BF0C
:1001800004680C607047000000230024002500264E
:10019000103A28BF78C1FBD8520728BF30C148BFEA
:1001A0000B6070471FB51FBD10B510BD01F0F5FF06
:1001B0001146FFF7F7FF00F009F802F013F803B457
:1001C000FFF7F2FF03BC01F005FB00004FF41650EF
:1001D00001F014FC01F094FA01F09CFB24E00A21E8
:1001E000012001F0F0FB114908800846008802F068
:1001F00063F9804602F034F906464FF066320C4B44
:1002000002F030F8044601F0FBFF0A490860FA20CA
:1002100001F0B3FA054800880749486005480068BE
:100220008860084601F086FED9E70000040000203F
:1002300066664A3F0000002070000020704700BF43
:10024000FEE700BFFEE700BFFEE700BFFEE7704726
:1002500070477047704700000CB500200190009077
:100260006C48006840F480306A49086000BF694803
:10027000006800F4003000900198401C0190009844
:1002800018B90198B0F5A06FF1D16248006800F488
:10029000003010B10120009001E000200090009893
:1002A000012843D15C48006840F010005A490860BA
:1002B0000846006820F0030008600846006840F027
:1002C0000200086053484068524948600846406848
:1002D00048600846406840F48060486008464068CE
:1002E00020F47C1048600846406840F4E8104860FC
:1002F0000846006840F08070086000BF454800680C
:1003000000F000700028F9D04248406820F0030057
:10031000404948600846406840F00200486000BF1D
:100320003C48406800F00C000828F9D10CBD10B51D
:10033000FFF792FF10BD10B53648006840F001008D
:1003400034490860084640683449084031494860EB
:1003500008460068324908402E490860084600688F
:1003600020F4802008600846406820F4FE004860C1
:100370004FF41F008860FFF7DAFF4FF00060294953
:10038000086010BD10B5002100200022214B5B68E1
:1003900003F00C0121B1042906D0082928D107E077
:1003A000214B224C236027E01F4B204C236023E08D
:1003B000184B5B6803F47010164B5B6803F48032D3
:1003C000022303EB904022B9194B4343174C23609F
:1003D0000DE0104B5B6803F4003323B1144B43432F
:1003E000124C236003E0104B4343104C236003E0A6
:1003F0000D4B0E4C236000BF00BF064B5B68C3F380
:1004000003130C4CE15C094B1B68CB40074C236089
:1004100010BD000000100240002002400000FFF864
:10042000FFFFF6FE08ED00E000127A000800002051
:1004300000093D000C00002009488047094800479A
:10044000FEE7FEE7FEE7FEE7FEE7FEE7FEE7FEE784
:10045000FEE7FEE704480549054A064B70470000E1
:100460003703000831010008F8050020F80B0020D0
:10047000F8070020F807002031490143314A116094
:10048000704770B5002100230F22C47804B32D4CAF
:10049000246804F4E064C4F5E064210AC1F10403B3
:1004A000CA40447804FA03F18478144021430901D6
:1004B000254C0678A155047804F01F050124AC40B2
:1004C00005786D11AD0005F1E025C5F8004109E0A2
:1004D000047804F01F050124AC401C4D0678761109
:1004E00045F8264070BD1A4A0A400243154B1B1FAF
:1004F0001A60704739B1134A121D12680243114B3A
:100500001B1D1A6006E00F4A121D126882430D4B34
:100510001B1D1A607047042808D14FF0E0210969BB
:1005200041F004014FF0E022116107E04FF0E021BB
:10053000096921F004014FF0E022116170470000C9
:100540000000FA050CED00E000E400E080E100E0CE
:1005500080FFFF1F10B50446FA48844208D10121EC
:10056000401500F07FFE0021601500F07BFE17E0D3
:10057000F548844208D10121001500F073FE0021E6
:10058000201500F06FFE0BE0F048844208D10121F5
:10059000C80300F067FE00214FF4004000F062FE47
:1005A00010BD30B50246002000235068E84C2040C2
:1005B0000D790C6844EA0524204350609068E54CAE
:1005C0002040D1E902542C434D7944EA45042043AC
:1005D0009060D06A20F470000C7C641EE4B2234367
:1005E00040EA0350D06230BD0021016001714171C9
:1005F0008160C16001210174704721B1826842F0BD
:100600000102826003E0826822F00102826070478A
:1006100021B1826842F48072826003E0826822F431
:1006200080728260704710B50023CBB21AB1446863
:100630001C43446002E044689C43446010BD8168F0
:1006400041F0080181607047014600208A6802F08D
:1006500008020AB1012000E000207047816841F0E3
:10066000040181607047014600208A6802F004029C
:100670000AB1012000E00020704721B1826842F4F5
:10068000A002826003E0826822F4A00282607047C8
:10069000014600208A6802F480020AB1012000E0CD
:1006A0000020704710B50A4600210023416821F45C
:1006B0006041531E41EA4331416010BD21B142689F
:1006C00042F40062426003E0426822F40062426049
:1006D0007047F0B504460D4600200021092D11DDBC
:1006E000E068A5F10A0606EB4607072606FA07F1B9
:1006F0008843A5F10A0606EB460603FA06F108430D
:10070000E0600CE0206905EB4507072606FA07F1D3
:10071000884305EB450603FA06F108432061072AE2
:100720000FDA606B561E06EB86071F2606FA07F1E6
:100730008843561E06EB860605FA06F108436063F9
:1007400022E00D2A0FDA206BD61F06EB86071F2644
:1007500006FA07F18843D61F06EB860605FA06F16E
:100760000843206310E0E06AA2F10D0606EB86075D
:100770001F2606FA07F18843A2F10D0606EB86064E
:1007800005FA06F10843E062F0BD21B1826842F447
:100790008012826003E0826822F4801282607047D7
:1007A0000146C86C80B2704766484C30006870479C
:1007B00021B1426842F48062426003E0426822F460
:1007C00080624260704721B1426842F480524260C8
:1007D00003E0426822F48052426070470A460021DA
:1007E000816821F4E04111438160704721B1826842
:1007F00042F40042826003E0826822F40042826098
:10080000704721B1826842F40212826003E082687C
:1008100022F4021282607047014600208A6802F4C6
:1008200000120AB1012000E000207047F0B5044634
:100830001546002000220026092911DDE068A1F1FB
:100840000A0707EB470C072707FA0CF29043A1F1C0
:100850000A0707EB470703FA07F21043E0600CE0D2
:10086000206901EB410C072707FA0CF2904301EBDA
:10087000410703FA07F210432061A06BC0F3015651
:10088000EF1C06F1010CA7EB0C0707EB870C1F27E9
:1008900007FA0CF29043EF1C06F1010CA7EB0C07D2
:1008A00007EB870701FA07F21043A063F0BD10B50C
:1008B0000A4600210023816B21F44011531E41EAB6
:1008C0000351816310BD08B5002300930090009B85
:1008D0000B440093009B1A6008BD08B50246002037
:1008E0000090009201F12800009B184400900098AD
:1008F000006880B208BD0A4600214168164B1940C5
:100900001143416070474162826270470A4600218C
:10091000416821F01F0111434160704740B109490E
:100920000831096841F40001064A0832116007E005
:1009300004490831096821F40001024A08321160B3
:10094000704700000024014000280140003C0140A5
:10095000FFFEF0FFFDF7F1FFFFFD3FFF0246002025
:1009600013680B400BB1012000E000207047CA4320
:100970000260704770B502460020002300240B126D
:100980005568CEB205EA060415681D4015B10CB1D4
:10099000012000E0002070BD00220A12D343036052
:1009A0007047000001684FF6FE721140016000219F
:1009B000016041608160C1608D49884208D18C49E5
:1009C0000839496841F00F01894A083A51608AE0C4
:1009D00087491431884208D185490839496841F06E
:1009E000F001834A083A51607DE08149283188420C
:1009F00008D17F490839496841F470617C4A083A56
:100A0000516070E07A493C31884208D17849083910
:100A1000496841F47041764A083A516063E074498C
:100A20005031884208D172490839496841F470212F
:100A30006F4A083A516056E06D496431884208D1E6
:100A40006B490839496841F47001694A083A5160B4
:100A500049E067497831884208D1654908394968D1
:100A600041F07061624A083A51603CE06149884255
:100A700006D1011F096841F00F01021F116032E029
:100A80005C491431884208D15A49091F096841F06C
:100A9000F001584A121F116025E05649283188425A
:100AA00008D15449091F096841F47061514A121F65
:100AB000116018E04F493C31884208D14D49091F67
:100AC000096841F470414B4A121F11600BE049491B
:100AD0005031884207D14749091F096841F4702104
:100AE000444A121F1160704710B50022026847F691
:100AF000F0739A430C6A8B6823430C6923434C6957
:100B000023438C692343CC6923434C6A23438C6A77
:100B100023431A430260CB6843600B6883604B68D1
:100B2000C36010BD0021016041608160C16001614E
:100B300041618161C161016241628162704721B19D
:100B4000026842F00102026004E002684FF6FE73A0
:100B50001A40026070471AB103680B43036002E059
:100B600003688B43036070474160704701464868E3
:100B700080B2704701460020002201F080531BB173
:100B80001C4B083B1A6802E0194B083B1A6802EA42
:100B900001030BB1012000E00020704700F08051FC
:100BA00019B11449091F086002E011490839486069
:100BB000704701460020002201F080531BB10D4B0D
:100BC000083B1A6802E00A4B083B1A6802EA010374
:100BD0000BB1012000E00020704700F0805119B1F6
:100BE0000449091F086002E001490839486070475C
:100BF000080002400804024010B50446CC48844274
:100C000008D10121042000F02DFB0021042000F078
:100C100029FB46E0C748844208D10121082000F0A2
:100C200021FB0021082000F01DFB3AE0C24884426D
:100C300008D10121102000F015FB0021102000F048
:100C400011FB2EE0BD48844208D10121202000F094
:100C500009FB0021202000F005FB22E0B848844277
:100C600008D10121402000F0FDFA0021402000F0D1
:100C7000F9FA16E0B348844208D10121802000F03F
:100C8000F1FA0021802000F0EDFA0AE0AE4884423B
:100C900007D10121801500F0E5FA0021A01500F030
:100CA000E1FA10BD10B50121084600F0DBFA002181
:100CB000012000F0D7FA10BD2DE9F04102460025D1
:100CC0000026002000230024002791F803C00CF028
:100CD0000F0591F803C00CF0100CBCF1000F03D00D
:100CE00091F802C04CEA050591F800C0BCF1000F74
:100CF00031D0146800202BE04FF0010C0CFA00F307
:100D0000B1F800C00CEA03069E4220D183004FF0E8
:100D10000F0C0CFA03F7BC4305FA03FC4CEA04047D
:100D200091F803C0BCF1280F06D14FF0010C0CFA6A
:100D300000FCC2F814C00AE091F803C0BCF1480FEF
:100D400005D14FF0010C0CFA00FCC2F810C0401C99
:100D50000828D1D31460B1F800C0BCF1FF0F34DD16
:100D6000546800202EE000F1080C4FF0010808FA4A
:100D70000CF3B1F800C00CEA03069E4221D18300B7
:100D80004FF00F0C0CFA03F7BC4305FA03FC4CEAD6
:100D9000040491F803C0BCF1280F05D100F1080C40
:100DA00008FA0CF8C2F8148091F803C0BCF1480F9F
:100DB00007D100F1080C4FF0010808FA0CF8C2F84E
:100DC0001080401C0828CED35460BDE8F0814FF657
:100DD000FF710180022181700421C17070470246B9
:100DE000002093680B400BB1012000E00020704709
:100DF0000146886880B2704702460020D3680B40E5
:100E00000BB1012000E0002070470146C86880B2A5
:100E1000704701617047416170470AB1016100E0AC
:100E200041617047C16070474FF480320A4382616C
:100E30008161826182698269704702460020434B6A
:100E400018684FF68073184040EA021008433F4B81
:100E5000186070473E49C8617047F0B50A460023E4
:100E600000240021002500F00046B6F1004F02D119
:100E7000364EF16901E0354E7168C0F3034583B227
:100E800000F44016B6F5401F08D121F070612F4ED6
:100E9000766826F070662D4F7E6012E000F48016B2
:100EA000B6F5801F06D1032606FA05F4A14341F0EA
:100EB000706106E0460D360103FA06F6B14341F0D3
:100EC000706122B1460D360103FA06F6314300F097
:100ED0000046B6F1004F02D11C4EF16101E01B4EFD
:100EE0007160F0BD30B500228B071C0F0F2303FA91
:100EF00004F2164B08338C1053F824309343134CF0
:100F000008348D1044F8253023468C1053F82430D3
:100F10008C07240F00FA04F423430C4C08348D1082
:100F200044F8253030BD0A49DC31086070470000C4
:100F300000080140000C0140001001400014014075
:100F400000180140001C0140002001400000014049
:100F500000002042DF48006840F00100DD490860E1
:100F600008464068DC490840DA494860084600689D
:100F7000DA490840D74908600846006820F4802014
:100F800008600846406820F4FE0048604FF41F00E7
:100F900088607047CF49096821F48031CD4A1160DB
:100FA0001146096821F480211160B0F5803F03D01B
:100FB000B0F5802F0ED106E0C649096841F48031B2
:100FC000C44A116007E0C349096841F4A021C14A3D
:100FD000116000E000BF00BF704710B5014600225D
:100FE000002300204A11012A02D1BA4C236806E0EE
:100FF000022A02D1B74C236A01E0B64C636A01F0C1
:101000001F02012494401C400CB1012000E000208C
:1010100010BD38B5002000900024002500BF31200D
:10102000FFF7DBFF05460098401C00900098B0F5E4
:10103000A06F01D0002DF2D03120FFF7CEFF08B114
:10104000012400E00024204638BD01460020A14ACA
:10105000106820F0F80040EAC10010607047A04915
:1010600008607047024600209A4B586820F47C10B4
:1010700042EA01031843974B586070479849086645
:10108000704701460020934A506820F0030008434F
:10109000506070478F48406800F00C007047014670
:1010A00000208C4A506820F0F000084350607047E0
:1010B00001460020874A506820F4E06008435060F1
:1010C000704701460020834A506820F4605040EA8F
:1010D000C1005060704729B17E4A527A02437D4B6D
:1010E0005A7204E07B4A527A82437A4B5A727047B2
:1010F0007B49D8310860704701460020754A506826
:1011000020F440400843506070470021714A20326B
:101110001170704A82F82010012802D004280AD1E8
:1011200004E001216B4A2032117005E00521694A73
:101130002032117000E000BF00BF704769490860AD
:1011400070476449096A0143624A11627047654900
:1011500044390860704730B5002100220024002384
:101160005C4D6D6805F00C0121B1042905D00829FA
:1011700023D105E05C4D056022E05B4D05601FE07A
:10118000544D6D6805F47012524D6D6805F480344D
:10119000022505EB92421CB9544D554305600BE006
:1011A0004C4D6D6805F400351DB1504D554305603B
:1011B00002E04D4D5543056002E04B4D056000BF18
:1011C00000BF444D6D6805F0F0010909484D6B5CA6
:1011D0000568DD4045603F4D6D6805F4E061090A32
:1011E000434D6B5C4568DD4085603A4D6D6805F4A4
:1011F0006051C90A3E4D6B5C4568DD40C560354DA8
:101200006D6805F44041890B3A4D6B5CC568B5FBD0
:10121000F3F5056130BD29B12E4A526902432D4BC9
:101220005A6104E02B4A526982432A4B5A61704743
:1012300029B1284A92690243264B9A6104E0254A63
:1012400092698243234B9A61704729B1214AD2693E
:101250000243204BDA6104E01E4AD26982431D4BEF
:10126000DA61704729B11B4AD2680243194BDA6030
:1012700004E0184AD2688243164BDA60704729B1FD
:10128000144A12690243134B1A6104E0114A1269AD
:101290008243104B1A617047124940390860704709
:1012A0000F49C86470470B49C87170470948406AC4
:1012B00040F0807007494862704701460020054AA7
:1012C00092680A400AB1012000E0002070470149FD
:1012D00088727047001002400000FFF8FFFFF6FE22
:1012E000000042428004424200127A0000093D00A0
:1012F0001C0000202C00002010B50446FB4884424E
:1013000009D101218803FFF7ADFF00214FF4804090
:10131000FFF7A8FF32E0F648844209D101214804D2
:10132000FFF7ADFF00214FF40030FFF7A8FF25E0E5
:10133000F048844209D101218804FFF7A0FF002171
:101340004FF48020FFF79BFF18E0EB48844209D15F
:101350000121C804FFF793FF00214FF40020FFF79D
:101360008EFF0BE0E548844208D101210805FFF714
:1013700086FF00214FF48010FFF781FF10BD2DE99B
:10138000F04786B005460E460024A24600BFA1469F
:101390000027B08900B100BF2F462C8A4CF6FF70A1
:1013A0000440F08804432C82AC894EF6F3100440CC
:1013B000B08831890843718908430443AC81AC8A01
:1013C0004FF6FF400440B0890443AC8201A8FFF708
:1013D000C2FEC648874202D1DDF810A001E0DDF868
:1013E0000CA0A88900F4004040B10AEBCA0000EB51
:1013F0000A1031684900B0FBF1F807E00AEBCA00B7
:1014000000EB0A1031688900B0FBF1F86420B8FBEA
:10141000F0F004012009642101FB1089A88900F47F
:10142000004040B1322000EBC900B0FBF1F000F009
:101430000700044308E0322000EB09106421B0FBF0
:10144000F1F000F00F0004432C8106B0BDE8F087F6
:101450004FF41651016000218180C18001810C216F
:10146000418100218181704710B502460020108A19
:101470004FF2FF0318400B884C8823438C8823438A
:10148000CC8823431843108210BD00210180418085
:101490008180C180704721B1828942F400528281EB
:1014A00004E082894DF6FF731A4082817047F0B5DF
:1014B0000346002400260025002040F66A17B942A2
:1014C00000D100BF1846C1F3421401F01F060127E6
:1014D00007FA06F5012C01D10C3004E0022C01D1F1
:1014E000103000E014301AB107682F43076002E0A3
:1014F0000768AF430760F0BD1AB1838A0B4383824C
:1015000002E0838A8B4383827047028A4FF6F0732E
:101510001A400282028A0A430282704782894FF28D
:10152000FF731A40828182890A438281704721B108
:10153000828942F00202828104E082894FF6FD73C3
:101540001A4082817047028A4FF6DF731A40028286
:10155000028A0A430282704721B1028A42F4804221
:10156000028204E0028A4BF6FF731A40028270473F
:10157000C1F308028280704701468888C0F30800E2
:101580007047818941F0010181817047028BD2B29D
:101590000283028B42EA012202837047028B02F42B
:1015A0007F420283028B0A430283704721B1828A01
:1015B00042F02002828204E0828A4FF6DF731A40F2
:1015C0008282704721B1828A42F01002828204E056
:1015D000828A4FF6EF731A408282704721B1828A65
:1015E00042F00802828204E0828A4FF6F7731A40C2
:1015F0008282704721B1828942F40042828103E0F5
:101600008289C2F30E028281704721B1828A42F43C
:101610000062828204E0828A4FF2FF731A40828263
:101620007047828A4FF6FB731A408282828A0A438D
:101630008282704721B1828A42F00202828204E0F3
:10164000828A4FF6FD731A4082827047024600205C
:10165000B1F5007F00D100BF13880B400BB1012012
:1016600000E00020704701F40072B2F5007F00D165
:1016700000BFCA430280704770B5024600240023B1
:101680000025002040F66A16B14200D100BFC1F328
:10169000421501F01F03012606FA03F3012D02D1C2
:1016A0009689334006E0022D02D1168A334001E0CC
:1016B000968A33400C12012606FA04F41688344048
:1016C00013B10CB1012000E0002070BD10B5002264
:1016D000002340F66A14A14200D100BF0A1201247F
:1016E0009440A3B2DC43048010BD000000380140E8
:1016F0000044004000480040004C004000500040C2
:1017000010B56FF00400FEF706FF2E4800682E4962
:10171000B0FBF1F02D4908700846007800EB40015D
:10172000C1EBC0104FF6FF7101EAC00028490880E4
:1017300010BD0146254A12784A434FF0E0235A6112
:1017400000229A611A46126942F001021A6100BF32
:101750004FF0E022106900F001021AB100F480326B
:10176000002AF5D04FF0E022126922F001024FF07A
:10177000E0231A6100229A6170470146144A1288D8
:101780004A434FF0E0235A6100229A611A461269D7
:1017900042F001021A6100BF4FF0E022106900F030
:1017A00001021AB100F48032002AF5D04FF0E02295
:1017B000126922F001024FF0E0231A6100229A61BF
:1017C000704700000800002000127A00300000205E
:1017D0003200002000BF704700BF4A4A128802F062
:1017E0004002002AF9D0C2B2464B1B1D1A80704736
:1017F00010B586B00446012144F20400FFF718FD3D
:101800004FF40070ADF8140003208DF81600182076
:101810008DF8170005A93C48FFF74EFA4FF4806099
:10182000ADF8140004208DF8170005A93648FFF71D
:1018300043FA25208DF8000003208DF801008DF873
:10184000020001208DF803006846FEF71AFE01949D
:101850000020ADF80800ADF80A00ADF80C00ADF8B6
:1018600010000C20ADF80E0001A92648FFF787FDF7
:10187000012240F225512348FFF719FE012121489A
:10188000FFF709FE06B010BD10B540F225511D4806
:10189000FFF7F2FE10B31B48FFF76EFEC4B21B4801
:1018A000008800F40040C8B91848008800F480405F
:1018B00060B10A2C03D000201449088020E01348AE
:1018C000008840F400401149088019E00D2C06D131
:1018D0000E48008840F480400C49088010E00B4816
:1018E0000088C0F30D000A490C5408480088401CC9
:1018F0000649088008460088C72801DD00200880C6
:1019000010BD0000003801400008014038000020F0
:101910009000002000B587B001214FF40170FFF75F
:1019200087FC4FF40040FFF7E7FB0220ADF804000E
:1019300000208DF8070001A92E48FFF7BDF92E48B9
:10194000FEF708FE002002908DF80C008DF80D00C7
:101950004FF4602004900020059001208DF81800BD
:1019600002A92548FEF71DFE01212348FEF745FE8A
:101970002148FEF764FE00BF1F48FEF765FE002801
:10198000FAD11D48FEF76AFE00BF1B48FEF76BFE4A
:101990000028FAD107B000BD10B504460723012284
:1019A00021461548FEF795FE01211348FEF765FE16
:1019B00000BF02211048FEF7D1FF0028F9D00E48E1
:1019C000FEF7EEFE10BD2DE9F04107460C4600255E
:1019D000002608E03846FFF7DFFF05440520FFF743
:1019E000CCFE701CC6B2A642F4DBB5FBF4F080B2AC
:1019F000BDE8F081000801400024014010B586B028
:101A00000446012144F20100FFF712FC01210420E9
:101A1000FFF70EFC01210846FFF7FDFB4FF40070B5
:101A2000ADF8040001208DF8060018208DF807009D
:101A300001A9FE48FFF740F94FF48060ADF80400BB
:101A400004208DF8070001A9F848FFF735F9029442
:101A50000020ADF80C00ADF80E00ADF81000ADF8A8
:101A600014000C20ADF8120002A9F148FFF787FC22
:101A7000F048FEF797FF1020EF4988600020886249
:101A80000861EB48001D0860401448620420C860EB
:101A900000204860C8618861802048610020086299
:101AA000E448FFF721F801228021E148FFF724FDF7
:101AB000E0481430FEF776FF0020DF4988604FF4DD
:101AC0008060C860DD48486020200862D948143032
:101AD000FFF70AF801224021D548FFF70DFD01214B
:101AE000D348FFF7D8FC0121D2481430FFF727F87C
:101AF00006B010BD01460020D14A1070CD484438D0
:101B0000C06DC0F58060CF4A108010460088CE4A74
:101B1000128890420CDACB48008800F58060CA4AEF
:101B20001288801AC94A12681044C84A106009E035
:101B3000C4480088C44A1288801AC44A12681044F3
:101B4000C24A106006E0C2480068C24A12881044C7
:101B5000BF4A1060BD480068BE4A1288801ABC4A5D
:101B600012689042EFDCB2E1B94A1068C21700EB8C
:101B700092529212A0EB8222B74B1A80184600882C
:101B8000401CB64A1080AD481A461288805CA528D1
:101B90007ED11A46128802F10E00C21700EB925253
:101BA0009212A0EB8222A54B9A5C5A2A71D1002096
:101BB000AB4A1070AB4A10801DE0A7480088401C5B
:101BC000A54A108010460088B0F5806F04DB1046EF
:101BD0000088A0F58060108098489F4A1288805C39
:101BE0009F4A127810449E4A10709E480088401CFC
:101BF00000B29C4A10809B48B0F900000C28DCDB46
:101C000095480088401C944A108010460088B0F522
:101C1000806F04DB10460088A0F580601080874844
:101C20008D4A1288805C8E4A127890427ED18E480E
:101C3000016001208D4A108000208D4A108020E034
:101C400086480088B0F5806F05DB84480088A0F5E1
:101C50008060824A10807948804A1288805C824A7B
:101C6000126810707D480088401C7C4A10807E48B5
:101C70000068401C7C4A10607D480088401C7C4AFB
:101C800010807B480088794A12889042D8DB01E0B6
:101C900013E107E1481C744A10600120734A108068
:101CA0000020734A108020E06C480088B0F5806FF7
:101CB00005DB6A480088A0F58060684A10805F48AC
:101CC000664A1288805C684A12681070634800880F
:101CD000401C624A108064480068401C624A1060E0
:101CE00063480088401C624A1080614800885F4A4F
:101CF00012889042D8DB881C5B4A106002205B4A45
:101D0000108000205A4A108022E054480088B0F524
:101D1000806F05DB51480088A0F580604F4A108035
:101D200046484E4A1288805C4F4A00E0AFE0126895
:101D300010704A480088401C484A10804A48006891
:101D4000401C494A10604A480088401C484A10809C
:101D500047480088454A12889042D6DB081D424A0F
:101D600010600420414A10800020414A108020E089
:101D70003A480088B0F5806F05DB38480088A0F548
:101D80008060364A10802D48344A1288805C364A7A
:101D90001268107031480088401C304A1080324868
:101DA0000068401C304A106031480088401C304AAE
:101DB00010802F4800882D4A12889042D8DB01F10C
:101DC0000800294A10600420284A10800020284A70
:101DD000108020E021480088B0F5806F05DB1F48A7
:101DE0000088A0F580601D4A108014481B4A1288A4
:101DF000805C1D4A1268107018480088401C174A01
:101E0000108019480068401C174A10601848008864
:101E1000401C174A108016480088144A12889042C5
:101E2000D8DB0E480088134A106025E00008014006
:101E3000003801404400024068050020580100209D
:101E400069000020520000205400002048000020BB
:101E50004C000020440000205600002058000020C4
:101E60006800002050000020600000205A00002080
:101E70005C00002064000020B5480068B54A128864
:101E80001044B34A10600120B34A10701FE0B048FC
:101E90000068401CAE4A1060B0480068401CAF4A61
:101EA000106014E0AA480068401CA94A1060AB48C2
:101EB0000068401CA94A106009E0A5480068401C61
:101EC000A34A1060A5480068401CA44A1060A448BA
:101ED0000068A04A1288801A9D4A12689042BFF694
:101EE00043AEA0480088A04A10809B480078704705
:101EF00070B504460D469D48FEF754FD10209C49E0
:101F000088600020886208619A480860401448622E
:101F10000846C56044600020C8618861802048612F
:101F2000002008629148FEF7DFFD01218F48FEF78F
:101F300006FE70BD70B50546A5208F4908700020CB
:101F40008E4908708E49087001208E490870002063
:101F50008D49088033E08C480088285C68B1864849
:101F600088490978405C86490A78012191400843F4
:101F70008149844A127888540CE07F488149097865
:101F8000405C7F490A780121914088437A497D4A23
:101F9000127888547A480078401C794908700846BD
:101FA0000078082806DB0020087076480078401C7E
:101FB0007449087074480088401C7349088072484E
:101FC00000880128C7DB6E48007820B16D48007892
:101FD000401C6C49087000206B49088011E0681CA7
:101FE00069490988405C6449664A127888546548A2
:101FF0000078401C6349087063480088401C6249AF
:102000000880614800880128E9DB00205E490880DB
:102010001EE0A81C5C49098810F811105648594A5E
:1020200012788154A81C5849098830F81100C0F36F
:102030000721514A53480078401C115451480078F8
:10204000801C5049087050480088401C4E49088048
:102050004D4800880128DCDB00204B49088024E043
:10206000281D4949098850F821404349454A1278BA
:102070008C54C4F30721404A42480078401C115454
:10208000C4F307413F480078801C1154210E3D489D
:102090000078C01C11543B480078001D3949087075
:1020A00039480088401C3849088037480088012892
:1020B000D6DB00203449088025E005F108003249CC
:1020C000098850F821402C492E4A12788C54C4F3C8
:1020D0000721294A2B480078401C1154C4F30741BA
:1020E00028480078801C1154210E26480078C01C16
:1020F000115424480078001D2249087022480088A5
:10210000401C21490880204800880128D5DB012097
:102110001E4908800DE018481C490988405C174991
:10212000097808441549087018480088401C174968
:102130000880164800880C28EDDD104800780E490C
:1021400048735A2088730F210B48FFF7D1FE70BDEA
:102150004C000020440000206900002064000020A2
:10216000480000205200002054000020440002409B
:102170006805002004380140580500206800002050
:102180006C0000206D0000206A0000204600002046
:1021900070477047704770477047754600F02CF8DD
:1021A000AE4605006946534620F00700854618B044
:1021B00020B5FEF74FF9BDE820404FF000064FF084
:1021C00000074FF000084FF0000B21F00701AC466C
:1021D000ACE8C009ACE8C009ACE8C009ACE8C0098B
:1021E0008D46704710B50446AFF300802046BDE829
:1021F0001040FDF7E4BF0000004870479405002040
:1022000021F00042A2F16052B2F5801F01F00043BC
:1022100028BFD2F17F6C0BD95FEA001C43EAC202EF
:1022200042EB507018BF704728BF20F00100704784
:10223000B2F5801FBCBF184670474FEA410C1CF531
:10224000001F02D2084600F090B970B500F0B4F853
:1022500000000089FFF7F6BF4FF00040A0F58000B6
:1022600070470000DFF848C170B51CEA111E1EBFA0
:102270001CEA13159EEA0C0F95EA0C0F00F06F8014
:1022800081EA030423EA4C134EEAD47E21EA4C117E
:1022900041F4801143F48013AE44A1FB024CA0FB37
:1022A0000365AEF17F7E361955EB0C05A1FB034C9F
:1022B0004CF10003A0FB021C16EB0C06654153F128
:1022C0000003094218BF46F0010613F4007F0BD14A
:1022D0004FEA03314FEA0530340341EA155140EA31
:1022E00016506FF003020AE04FEAC3214FEAC520FF
:1022F000F40241EA555140EA56506FF0020202EBF7
:102300002E4201EB025585EACE710AD05FEA440CF9
:1023100018BF24F0004450F1000041F1000120EA10
:10232000D47040F2FE7C624500D270BDA84214BF5A
:102330004FF080444FF04044002E08BF0024BEF10F
:10234000806FA8BFA1F1C041BDE8704080F28280DB
:102350004FF0000001F1C04101F0004170479EEADA
:102360000C0F0CEA131518BF95EA0C0F06D04FF0AE
:10237000000081EA030E0EF0004170BD00F01CF871
:102380008900013E00F007B800F009B84FEA430C9D
:102390005FEA5C5C08D081EA030100F05BB84FEAB9
:1023A000410C5FEA5C5CF6D14FF0000001497047D8
:1023B0000000FF070000F87F0EF1020E2EF0030E62
:1023C0005EF8046B364205D4012A43EB030515F58C
:1023D000001F12D8012841EB010C1CF5001F0CD87E
:1023E0000ED14FEAD17C15F5001F0CEB4C0C0CF113
:1023F000020C08BF4CEBD37C04E04FF0080C01E06A
:102400004FEAD37C0CEB4C0526FA05F606F00706DE
:10241000B6F1040C06D20EEB860CBDE870404CF011
:10242000010C6047DFE80CF0090B02024FF000419D
:102430004FF00000A1F5002170BD1946104601289B
:1024400051EB010418BFD4F5001484BF002001F043
:10245000004170BD0808A0F500114FEA3101704736
:1024600043004FEAD30C4FEA3C0C43401FBF4007E8
:102470000CF1605113F0FE4F70471CF0006F03D158
:1024800000200CF0004170470CF0004343EA50700C
:1024900010B540EACC0000F022F800BF0000009226
:1024A0004FEA0001FFF7D6BF4FF000414FF00000A8
:1024B000A1F5002170470000B0FA80F310FA03F292
:1024C000C3F19D030AD0D90501EB1220530638BF92
:1024D000704700F1010008BF20F0010070470EF1C5
:1024E000020E2EF0030E5EF8044B244204D44FEA91
:1024F0004102B2F17F4F11D84FEA4003B3F17F4F51
:102500000CD80ED14FEAD07CB2F17F4F0CEB4C0CC3
:102510000CF1020C08BF4CEBD17C04E04FF0080C2E
:1025200001E04FEAD17C0CEB4C0324FA03F404F0F5
:102530000704B4F1040C06D20EEB840CBDE8104085
:102540004CF0010C6047DFE80CF0070802024FF086
:102550000040A0F5800010BD0846420018BFD2F12F
:10256000807288BF00F0004010BDFF2141EAD050CA
:10257000C00570479425000800000020700000008E
:102580006C0100080426000870000020880B000081
:1025900088010008000000000000000000A24A04BA
:1025A0000000000000000000010203040607080903
:1025B00000000000010203040102030406070809E9
:1025C00002040608000000000000000000000000F7
:1025D00001020408102040800F00000000000000ED
:1025E00000000000000000000000000000000000EB
:1025F00000000000000000000000000000000000DB
:0426000000000000D6
:0400000508000131BD
:00000001FF
